{
  "contractName": "fotos",
  "abi": [
    {
      "constant": false,
      "inputs": [
        {
          "name": "id",
          "type": "uint256"
        },
        {
          "name": "tema",
          "type": "string"
        },
        {
          "name": "fecha",
          "type": "string"
        }
      ],
      "name": "resgistarReunion",
      "outputs": [],
      "payable": false,
      "stateMutability": "nonpayable",
      "type": "function"
    },
    {
      "constant": true,
      "inputs": [
        {
          "name": "id",
          "type": "uint256"
        }
      ],
      "name": "consultarReunion",
      "outputs": [
        {
          "name": "",
          "type": "uint256"
        },
        {
          "name": "",
          "type": "string"
        },
        {
          "name": "",
          "type": "string"
        }
      ],
      "payable": false,
      "stateMutability": "view",
      "type": "function"
    },
    {
      "constant": false,
      "inputs": [
        {
          "name": "id",
          "type": "uint256"
        },
        {
          "name": "hashf",
          "type": "string"
        },
        {
          "name": "urlf",
          "type": "string"
        }
      ],
      "name": "annadirFotoReunion",
      "outputs": [],
      "payable": false,
      "stateMutability": "nonpayable",
      "type": "function"
    },
    {
      "constant": true,
      "inputs": [
        {
          "name": "id",
          "type": "uint256"
        }
      ],
      "name": "consultarNumFotosReunion",
      "outputs": [
        {
          "name": "",
          "type": "uint256"
        }
      ],
      "payable": false,
      "stateMutability": "view",
      "type": "function"
    },
    {
      "constant": true,
      "inputs": [
        {
          "name": "id",
          "type": "uint256"
        },
        {
          "name": "pos",
          "type": "uint256"
        }
      ],
      "name": "consltarFotoDeReunion",
      "outputs": [
        {
          "name": "",
          "type": "string"
        },
        {
          "name": "",
          "type": "string"
        }
      ],
      "payable": false,
      "stateMutability": "view",
      "type": "function"
    }
  ],
  "bytecode": "0x608060405234801561001057600080fd5b50610b41806100206000396000f3fe608060405234801561001057600080fd5b50600436106100575760003560e01c80630d2092171461005c5780632bae7a33146101b85780634cf3b054146101fa57806354cdb2e2146103565780639b98a72114610473575b600080fd5b6101b66004803603606081101561007257600080fd5b81019080803590602001909291908035906020019064010000000081111561009957600080fd5b8201836020820111156100ab57600080fd5b803590602001918460018302840111640100000000831117156100cd57600080fd5b91908080601f016020809104026020016040519081016040528093929190818152602001838380828437600081840152601f19601f8201169050808301925050505050505091929192908035906020019064010000000081111561013057600080fd5b82018360208201111561014257600080fd5b8035906020019184600183028401116401000000008311171561016457600080fd5b91908080601f016020809104026020016040519081016040528093929190818152602001838380828437600081840152601f19601f82011690508083019250505050505050919291929050505061058d565b005b6101e4600480360360208110156101ce57600080fd5b8101908080359060200190929190505050610600565b6040518082815260200191505060405180910390f35b6103546004803603606081101561021057600080fd5b81019080803590602001909291908035906020019064010000000081111561023757600080fd5b82018360208201111561024957600080fd5b8035906020019184600183028401116401000000008311171561026b57600080fd5b91908080601f016020809104026020016040519081016040528093929190818152602001838380828437600081840152601f19601f820116905080830192505050505050509192919290803590602001906401000000008111156102ce57600080fd5b8201836020820111156102e057600080fd5b8035906020019184600183028401116401000000008311171561030257600080fd5b91908080601f016020809104026020016040519081016040528093929190818152602001838380828437600081840152601f19601f820116905080830192505050505050509192919290505050610627565b005b61038c6004803603604081101561036c57600080fd5b8101908080359060200190929190803590602001909291905050506106be565b604051808060200180602001838103835285818151815260200191508051906020019080838360005b838110156103d05780820151818401526020810190506103b5565b50505050905090810190601f1680156103fd5780820380516001836020036101000a031916815260200191505b50838103825284818151815260200191508051906020019080838360005b8381101561043657808201518184015260208101905061041b565b50505050905090810190601f1680156104635780820380516001836020036101000a031916815260200191505b5094505050505060405180910390f35b61049f6004803603602081101561048957600080fd5b8101908080359060200190929190505050610866565b604051808481526020018060200180602001838103835285818151815260200191508051906020019080838360005b838110156104e95780820151818401526020810190506104ce565b50505050905090810190601f1680156105165780820380516001836020036101000a031916815260200191505b50838103825284818151815260200191508051906020019080838360005b8381101561054f578082015181840152602081019050610534565b50505050905090810190601f16801561057c5780820380516001836020036101000a031916815260200191505b509550505050505060405180910390f35b82600080858152602001908152602001600020600001819055508160008085815260200190815260200160002060020190805190602001906105d09291906109f0565b508060008085815260200190815260200160002060030190805190602001906105fa9291906109f0565b50505050565b60008060008084815260200190815260200160002060010180549050905080915050919050565b600080848152602001908152602001600020600101604051806040016040528084815260200183815250908060018154018082558091505090600182039060005260206000209060020201600090919290919091506000820151816000019080519060200190610698929190610a70565b5060208201518160010190805190602001906106b5929190610a70565b50505050505050565b60608060008085815260200190815260200160002060010183815481106106e157fe5b9060005260206000209060020201600001600080868152602001908152602001600020600101848154811061071257fe5b9060005260206000209060020201600101818054600181600116156101000203166002900480601f0160208091040260200160405190810160405280929190818152602001828054600181600116156101000203166002900480156107b85780601f1061078d576101008083540402835291602001916107b8565b820191906000526020600020905b81548152906001019060200180831161079b57829003601f168201915b50505050509150808054600181600116156101000203166002900480601f0160208091040260200160405190810160405280929190818152602001828054600181600116156101000203166002900480156108545780601f1061082957610100808354040283529160200191610854565b820191906000526020600020905b81548152906001019060200180831161083757829003601f168201915b50505050509050915091509250929050565b600060608060008085815260200190815260200160002060000154600080868152602001908152602001600020600201600080878152602001908152602001600020600301818054600181600116156101000203166002900480601f0160208091040260200160405190810160405280929190818152602001828054600181600116156101000203166002900480156109405780601f1061091557610100808354040283529160200191610940565b820191906000526020600020905b81548152906001019060200180831161092357829003601f168201915b50505050509150808054600181600116156101000203166002900480601f0160208091040260200160405190810160405280929190818152602001828054600181600116156101000203166002900480156109dc5780601f106109b1576101008083540402835291602001916109dc565b820191906000526020600020905b8154815290600101906020018083116109bf57829003601f168201915b505050505090509250925092509193909250565b828054600181600116156101000203166002900490600052602060002090601f016020900481019282601f10610a3157805160ff1916838001178555610a5f565b82800160010185558215610a5f579182015b82811115610a5e578251825591602001919060010190610a43565b5b509050610a6c9190610af0565b5090565b828054600181600116156101000203166002900490600052602060002090601f016020900481019282601f10610ab157805160ff1916838001178555610adf565b82800160010185558215610adf579182015b82811115610ade578251825591602001919060010190610ac3565b5b509050610aec9190610af0565b5090565b610b1291905b80821115610b0e576000816000905550600101610af6565b5090565b9056fea165627a7a7230582030ee72e46d0ea975e4c4b049b300eb15620423157e6d4d082eea7d842cbcf5e50029",
  "source": "pragma solidity ^0.5.0;\r\n\r\n/*programa de Juan Manuel Diaz Y Fernando Ruiz*/\r\n\r\ncontract fotos{\r\n    \r\n    struct Foto{\r\n        string hash;\r\n        string url;\r\n    }\r\n    \r\n    struct Reunion{\r\n        \r\n        uint id;\r\n        Foto[] foticos;\r\n        string tema;\r\n        string fecha;\r\n        \r\n        \r\n        \r\n    }\r\n    \r\n    mapping(uint => Reunion)reuniones;\r\n    \r\n    function resgistarReunion(uint id,string memory tema,string memory fecha) public{\r\n        reuniones[id].id=id;\r\n        reuniones[id].tema=tema;\r\n        reuniones[id].fecha=fecha;\r\n        \r\n    }\r\n    \r\n    function consultarReunion(uint id)public view returns(uint ,string memory ,string memory){\r\n        return(reuniones[id].id,reuniones[id].tema,reuniones[id].fecha);\r\n        \r\n    }\r\n    function annadirFotoReunion (uint id,string memory hashf, string memory urlf) public{\r\n        \r\n      reuniones[id].foticos.push(Foto({hash: hashf,url: urlf }));\r\n        \r\n    }\r\n    \r\n    function consultarNumFotosReunion(uint id)public view returns(uint){\r\n        \r\n        uint u= reuniones[id].foticos.length;\r\n        return(u);\r\n        \r\n    }\r\n    \r\n    function consltarFotoDeReunion(uint id, uint pos)public view returns(string memory, string memory){\r\n        return (reuniones[id].foticos[pos].hash, reuniones[id].foticos[pos].url);\r\n    }\r\n    \r\n    \r\n}\r\n    \r\n    ",
  "sourcePath": "C:/Users/Labing/Desktop/Holamundo/contracts/fotos.sol",
  "compiler": {
    "name": "solc",
    "version": "0.5.8+commit.23d335f2.Emscripten.clang"
  },
  "schemaVersion": "3.0.12",
  "updatedAt": "2019-08-16T13:42:15.275Z",
  "devdoc": {
    "methods": {}
  },
  "userdoc": {
    "methods": {}
  }
}