{
  "contractName": "HelloWorld",
  "abi": [
    {
      "constant": false,
      "inputs": [],
      "name": "add",
      "outputs": [],
      "payable": false,
      "stateMutability": "nonpayable",
      "type": "function"
    },
    {
      "constant": false,
      "inputs": [],
      "name": "subtract",
      "outputs": [],
      "payable": false,
      "stateMutability": "nonpayable",
      "type": "function"
    },
    {
      "constant": true,
      "inputs": [],
      "name": "getCounter",
      "outputs": [
        {
          "name": "",
          "type": "uint256"
        }
      ],
      "payable": false,
      "stateMutability": "view",
      "type": "function"
    }
  ],
  "bytecode": "0x6080604052600560005534801561001557600080fd5b5060c9806100246000396000f3fe6080604052348015600f57600080fd5b5060043610603c5760003560e01c80634f2be91f1460415780636deebae31460495780638ada066e146051575b600080fd5b6047606d565b005b604f6080565b005b60576094565b6040518082815260200191505060405180910390f35b6000808154809291906001019190505550565b600080815480929190600190039190505550565b6000805490509056fea165627a7a723058200277138f13f9a9e2b3abc0cac37243bce0e67052fdfe3a08fc59cd1f345f876d0029",
  "source": "pragma solidity ^0.5.0;\r\ncontract HelloWorld {\r\n \r\n uint256 counter = 5; //state variable we assigned earlier\r\nfunction add() public {  //increases counter by 1\r\n  counter++;\r\n }\r\n \r\n function subtract() public { //decreases counter by 1\r\n  counter--;\r\n }\r\n function getCounter() public view returns (uint256) {\r\n  return counter;\r\n    } \r\n}\r\n",
  "sourcePath": "C:/Users/Labing/Desktop/Holamundo/contracts/HelloWorld.sol",
  "compiler": {
    "name": "solc",
    "version": "0.5.8+commit.23d335f2.Emscripten.clang"
  },
  "schemaVersion": "3.0.12",
  "updatedAt": "2019-08-16T13:25:17.639Z",
  "devdoc": {
    "methods": {}
  },
  "userdoc": {
    "methods": {}
  }
}